:1000000014C1000042C1000040C100003EC1000018
:100010003CC100003AC1000038C1000036C10000F8
:1000200034C1000032C1000030C100002EC1000008
:100030002CC100002AC1000028C1000026C1000018
:1000400024C1000022C1000020C100001EC1000028
:100050001CC100001AC1000018C1000019C6000030
:1000600014C10000DFC50000B4C500000EC10000CF
:100070000CC100000AC1000008C1000006C1000058
:1000800004C1000002C1000000C10000FEC0000069
:10009000FCC00000FAC00000F8C00000F6C000007C
:1000A000F4C00000F2C00000F0C00000EEC000008C
:1000B000ECC00000EAC00000E8C00000E6C000009C
:1000C000E4C00000E2C00000E0C00000DEC00000AC
:1000D000DCC00000DAC00000D8C00000D6C00000BC
:1000E000D4C00000A602A90298029C02A002E0026D
:1000F000AD02B102B702BB02BF02C502C902CD0206
:10010000E002D302D702DB02000021002400270016
:100110002A002D0030003300010100000401070116
:100120000A0100002200250028002B002E003100CB
:10013000340002010000050108010B0100000A0B58
:1001400002090C0D0E080703040100000000000066
:10015000000000000000000000000000000000009F
:10016000000000000000000012111000000000005C
:10017000000000000000000000000000000000007F
:100180000000000020002300260029002C002F0082
:100190003200000100000301060109010505050503
:1001A000070508080808020202020A0A08080404EF
:1001B000040401010101010101010303030303031D
:1001C0000303040707070C0C0C0C0C0C0C0C0202AC
:1001D000020206060606060606060B0B0B0B0B0BA9
:1001E0000B0B010210202008081020401020408036
:1001F00002010201080402010102040810204080EB
:100200008040201008040201800402018040201078
:1002100008040201080402010102040810204080C1
:100220000102040810204080920611241FBECFEF67
:10023000D1E2DEBFCDBF00E00CBF12E0A0E0B2E033
:10024000EEE9F6E100E00BBF02C007900D92A03589
:10025000B107D9F723E0A0E5B2E001C01D92A332B7
:10026000B207E1F711E0C5E1D1E000E006C0219757
:100270000109802FFE010E94410BC431D10780E0AB
:100280000807A9F799D50C944D0BBACECF92DF92FF
:10029000EF92FF920F931F93CF93DF936C017A013C
:1002A0008B01C0E0D0E0CE15DF0589F0D8016D915B
:1002B0008D01D601ED91FC910190F081E02DC601F8
:1002C0001995892B11F47E0102C02196ECCFC7014C
:1002D000DF91CF911F910F91FF90EF90DF90CF9022
:1002E0000895FC01538D448D252F30E0842F90E03C
:1002F000821B930B541710F0CF9608950197089521
:10030000FC01918D828D981761F0828DDF01A80F1D
:10031000B11D5D968C91928D9F5F9F73928F90E03F
:1003200008958FEF9FEF0895FC01918D828D9817AE
:1003300031F0828DE80FF11D858D90E008958FEFEB
:100340009FEF0895FC01918D228D892F90E0805CB4
:100350009F4F821B91098F73992708958EE692E033
:10036000F1DF21E0892B09F420E0822F0895FC01C0
:10037000848DDF01A80FB11DA35ABF4F2C91848D2E
:1003800090E001968F739927848FA689B7892C9363
:10039000A089B1898C9180648C93938D848D9813FE
:1003A00006C00288F389E02D80818F7D80830895C7
:1003B000EF92FF920F931F93CF93DF93EC0181E0B5
:1003C000888F9B8D8C8D981305C0E889F989808171
:1003D00085FD23C0F62E0B8D10E00F5F1F4F0F73AE
:1003E0001127E02E8C8DE8120BC00FB607FCFACF58
:1003F000E889F989808185FFF5CFCE01B8DFF2CF9A
:100400008B8DFE01E80FF11DE35AFF4FF0820B8F39
:10041000EA89FB898081806207C0EE89FF89608359
:10042000E889F98980818064808381E090E0DF91B0
:10043000CF911F910F91FF90EF900895CF93DF938D
:10044000EC01888D8823C1F0EA89FB89808185FDD4
:1004500005C0A889B9898C9186FD0EC00FB607FC2E
:10046000F5CF808185FFF2CFA889B9898C9185FF6E
:10047000EDCFCE017CDFE8CFDF91CF91089580E012
:1004800090E0892B19F06ADF811125C080E090E0AF
:10049000892B41F080E090E0892B21F00E94000040
:1004A00081111CC080E090E0892B41F080E090E059
:1004B000892B21F00E940000811113C080E090E0A0
:1004C000892BA1F080E090E0892B81F00E94000050
:1004D00081110AC008950E940000D8CF0E94000038
:1004E000E1CF0E940000EACF0C9400000895362F5F
:1004F00090E0FC01E45CFE4F4491FC01EE51FE4FA4
:100500002491FC01E456FE4F9491992309F46BC0A9
:10051000442309F455C050E0FA013197E231F10566
:1005200008F04EC08827EE58FF4F8F4F0C94410BB8
:10053000809180008F7707C0809180008F7D03C0FD
:1005400080918000877F809380003AC084B58F7748
:1005500002C084B58F7D84BD33C08091B0008F7799
:1005600003C08091B0008F7D8093B00029C080913E
:1005700090008F7707C0809190008F7D03C080919D
:100580009000877F809390001BC08091A0008F77A0
:1005900007C08091A0008F7D03C08091A000877F5D
:1005A0008093A0000DC0809120018F7707C08091BB
:1005B00020018F7D03C080912001877F80932001DF
:1005C000E92FF0E0EE0FFF1FEE5DFE4FA591B49115
:1005D0008FB7F894EC91311103C020952E2301C000
:1005E0002E2B2C938FBF0895CF93DF9390E0FC01C7
:1005F000EE51FE4F2491FC01E456FE4F8491882376
:1006000061F190E0880F991FFC01E85FFE4FC591F2
:10061000D491FC01EE5DFE4FA591B491611109C02A
:100620009FB7F8948881209582238883EC912E23AC
:100630000BC0623061F49FB7F8943881822F8095A7
:1006400083238883EC912E2B2C939FBF06C08FB7FA
:10065000F894E8812E2B28838FBFDF91CF910895E6
:100660003FB7F8948091550290915602A09157029D
:10067000B091580226B5A89B05C02F3F19F00196EE
:10068000A11DB11D3FBFBA2FA92F982F8827820F18
:10069000911DA11DB11DBC01CD0142E0660F771F68
:1006A000881F991F4A95D1F708958F929F92AF9214
:1006B000BF92CF92DF92EF92FF926B017C01D0DF6D
:1006C0004B015C01C114D104E104F104E9F0C8DF7D
:1006D000DC01CB0188199909AA09BB09883E93401E
:1006E000A105B10578F321E0C21AD108E108F108AB
:1006F00088EE880E83E0981EA11CB11CC114D104A1
:10070000E104F10421F7DECFFF90EF90DF90CF906E
:10071000BF90AF909F908F900895CF93DF93EC019F
:1007200060E08E81E4DE61E08E81E1DE60E08E815A
:10073000DEDE8BE891E00197F1F7DF91CF9108952C
:10074000CF92DF92EF92FF920F931F93CF93DF939D
:100750007C016C0187E0C80ED11CC0E0D0E0062F00
:1007600010E0B8010C2E02C0759567950A94E2F767
:100770006170F60181916F01BADE2196C430D10516
:1007800081F7C701DF91CF911F910F91FF90EF90FB
:10079000DF90CF90C2CFCF92DF92EF92FF920F9374
:1007A0001F93CF93DF93EC01F62E642F8C819FDE95
:1007B0008D818F3F11F060E09ADE8F850F2D10E064
:1007C00084FF23C06E0187E0C80ED11CE12CF12C00
:1007D000B8010E2C02C0759567950A94E2F7617016
:1007E000F60181916F0183DEFFEFEF1AFF0A88E0C7
:1007F000E816F10469F7CE01DF91CF911F910F91B7
:10080000FF90EF90DF90CF9088CFB80184E075958E
:1008100067958A95E1F7CE0193DF6F2DCE01DF91C9
:10082000CF911F910F91FF90EF90DF90CF9088CFE5
:1008300041E0B1DF81E090E0089540E0ACCFEF927D
:10084000FF920F931F93CF93DF93EC01623018F068
:100850008F8588608F876B8B1C8A80E48D8B80E10D
:100860008E8B80E58F8B61E08C81BEDE8D818F3F2A
:1008700011F061E0B9DE61E08E81B6DE7E0187E0D5
:10088000E80EF11C00E010E08F8584FD03C084E0D9
:1008900090E002C088E090E00817190744F461E096
:1008A000F70181917F01A0DE0F5F1F4FEDCF8BE33A
:1008B0009DE00197F1F760E08C8119DE60E08E81A8
:1008C00016DE8D818F3F11F060E011DE6F8564FDD3
:1008D00019C063E0CE0134DF0BE416E4C8010197D0
:1008E000F1F763E0CE012CDFC8010197F1F763E077
:1008F000CE0126DF83E592E00197F1F762E0CE01B9
:100900001FDF13C06062CE0198DF8BE496E401978D
:10091000F1F76F856062CE0190DF83E592E0019789
:10092000F1F76F856062CE0188DF6F856062CE016E
:1009300084DF84E0888B6CE0CE017FDF61E0CE0154
:100940007CDF8BE39FE10197F1F782E0898B66E022
:10095000CE01DF91CF911F910F91FF90EF906DCF5E
:10096000089580E090E0089594D66115710579F0BE
:10097000FB0101900020E9F73197AF01461B570BAF
:10098000DC01ED91FC910280F381E02D199480E06F
:1009900090E008954F925F926F927F92EF92FF9254
:1009A0000F931F93CF93DF93CDB7DEB7A1970FB609
:1009B000F894DEBF0FBECDBF7C01FA01CB0119A2B6
:1009C000223008F42AE08E010F5D1F4F422E512C79
:1009D000612C712CBF01A301920117D4F901CA0146
:1009E000015011096A3014F4605D01C0695CD801DE
:1009F0006C93232B242B252B69F7B801C701B5DF96
:100A0000A1960FB6F894DEBF0FBECDBFDF91CF9198
:100A10001F910F91FF90EF907F906F905F904F909C
:100A200008954F925F926F927F928F929F92AF92B2
:100A3000BF92CF92DF92EF92FF92CF93DF93EC01C0
:100A40006A017B01B22E9A01AB01C701B60115D62E
:100A5000882319F06EE172E024C026013701E89482
:100A600077F82FEF3FEF4FE75FE7C301B20105D6FD
:100A700081110CC02FEF3FEF4FE75FE7C301B201D9
:100A80004BD418161CF462E272E00BC02FEF3FEF5C
:100A90004FE75FE4C701B60189D5181694F466E202
:100AA00072E0CE01DF91CF91FF90EF90DF90CF9079
:100AB000BF90AF909F908F907F906F905F904F907E
:100AC00054CF2FEF3FEF4FE75FECC701B60124D4BF
:100AD00087FDE5CF20E030E0A901C701B6011CD4B5
:100AE00087FF0EC0E881F9810190F081E02D6DE271
:100AF000CE0119954C01F7FAF094F7F8F09402C082
:100B0000812C912CA12C60E070E080E09FE3AB147D
:100B100039F020E030E040E251E402D4A394F7CF72
:100B20009B01AC01C701B60193D32B013C0160D4FA
:100B30006B017C0189D49B01AC01C301B20187D355
:100B40002B013C012AE0B701A601CE0123DF7C0185
:100B5000E80CF91CBB2051F0E881F9810190F0818B
:100B6000E02D6EE2CE011995E80EF91EDB2CDD209A
:100B700001F120E030E040E251E4C301B2011AD5B6
:100B80002B013C0135D44B01A12CB12C2AE0B5013D
:100B9000A401CE01FFDEE80EF91EC501B40154D454
:100BA0009B01AC01C301B20152D32B013C01DA9489
:100BB000DECFC701DF91CF91FF90EF90DF90CF9014
:100BC000BF90AF909F908F907F906F905F904F906D
:100BD00008951F920F920FB60F9211240BB60F9229
:100BE0002F933F934F935F936F937F938F939F9335
:100BF000AF93BF93EF93FF938EE692E0B8DBFF9144
:100C0000EF91BF91AF919F918F917F916F915F9184
:100C10004F913F912F910F900BBE0F900FBE0F90F1
:100C20001F9018951F920F920FB60F9211240BB6BA
:100C30000F922F938F939F93EF93FF93E0917E02F8
:100C4000F0917F028081E0918402F091850282FD23
:100C500012C09081809187028F5F8F7320918802EC
:100C6000821751F0E0918702F0E0E259FD4F958F35
:100C70008093870201C08081FF91EF919F918F91B6
:100C80002F910F900BBE0F900FBE0F901F901895D5
:100C90001F920F920FB60F9211242F933F938F93B1
:100CA0009F93AF93BF938091510290915202A09174
:100CB0005302B09154023091500223E0230F2D379C
:100CC00020F40196A11DB11D05C026E8230F029650
:100CD000A11DB11D209350028093510290935202A6
:100CE000A0935302B0935402809155029091560202
:100CF000A0915702B09158020196A11DB11D809399
:100D0000550290935602A0935702B0935802BF9198
:100D1000AF919F918F913F912F910F900FBE0F90A8
:100D20001F901895EEE6F2E01382128288EE93E0AF
:100D3000A0E0B0E084839583A683B78384E092E04B
:100D40009183808385EC90E09587848784EC90E0A4
:100D50009787868780EC90E0918B808B81EC90E088
:100D6000938B828B82EC90E0958B848B86EC90E069
:100D7000978B868B118E128E138E148EEBE0F3E020
:100D80001382128286E192E0918380838DE08483D6
:100D90008FEF85838CE0868387E0878386E080877A
:100DA00085E0818784E082871386148615861686FF
:100DB000178661E0CF0143CDCF93DF931F921F923F
:100DC000CDB7DEB7789484B5826084BD84B5816088
:100DD00084BD85B5826085BD85B5816085BD809106
:100DE0006E00816080936E0010928100809181007E
:100DF0008260809381008091810081608093810076
:100E0000809180008160809380008091B100846037
:100E10008093B1008091B00081608093B000809198
:100E20009100826080939100809191008160809315
:100E30009100809190008160809390008091A1004A
:100E400082608093A1008091A10081608093A100C5
:100E50008091A00081608093A00080912101826038
:100E600080932101809121018160809321018091F3
:100E7000200181608093200180917A0084608093BA
:100E80007A0080917A00826080937A0080917A0063
:100E9000816080937A0080917A00806880937A00E4
:100EA0001092C100E0917E02F0917F0282E0808387
:100EB000E0917A02F0917B021082E0917C02F09145
:100EC0007D028FEC808310928602E0918202F09185
:100ED000830286E08083E0918002F091810280812C
:100EE00080618083E0918002F0918102808188603E
:100EF0008083E0918002F09181028081806880830C
:100F0000E0918002F091810280818F7D808362E098
:100F10008BE093E094DC5BE9A52EB12CC12C60EC56
:100F2000D62E69E7E62E64ECF62E7BE3872E7FE172
:100F3000972E8EE692E006DA892B09F453C1E5EE8E
:100F4000F1E02490EFE9F1E08491E82FF0E0EE0F7A
:100F5000FF1FEE57FE4F05911491109269021092F7
:100F60006A0210926B0210926C0210926D0261E0A4
:100F700083E03ADB60E083E0BADA62E170E080E0CF
:100F800090E093DB61E083E0B2DAC5010197F1F70D
:100F900060E083E029DB20E931E0F80180818221F3
:100FA00021F421503109C9F71FC120E931E0F801CE
:100FB0008081822121F021503109C9F715C128E231
:100FC00030E8312C80E991E0F8014081422119F4A8
:100FD0000197D1F709C12A83398342DB2B013C01F8
:100FE00080E991E02A813981F8014081422119F09C
:100FF0000197D1F7F9C02A83398332DBDC01CB01B9
:1010000084199509A609B7092A8139818997A1050B
:10101000B10538F0E32DF0E0EF59FD4F8085832BCB
:101020008087832F90E095958795009711F0382F52
:1010300002C0339430E8215009F0C4CF61E083E06E
:10104000D3DA61E083E053DA6091690270E080E016
:1010500090E0FAD160936102709362028093630220
:101060009093640260916B0270E080E090E0ECD1BC
:1010700060936502709366028093670290936802A2
:1010800020E030E048EC52E4609165027091660225
:10109000809167029091680243D160935D027093E2
:1010A0005E0280935F029093600220E030E048ECA3
:1010B00052E46091610270916202809163029091AA
:1010C00064022ED16093590270935A0280935B029E
:1010D00090935C026AE272E08EE692E046DC409118
:1010E0005D0250915E0260915F02709160022AE0A1
:1010F0008EE692E096DC66E372E08EE692E035DC06
:1011000069E372E08EE692E030DC40915902509142
:101110005A0260915B0270915C022AE08EE692E0D6
:1011200080DC66E372E08EE692E01FDC61E08BE03B
:1011300093E083DBC4010197F1F769E472E08BE08F
:1011400093E013DCE1E080911E038111E0E0E19582
:10115000F0E0E55FFC4F64896D5F60688BE093E0D1
:101160006CDB40915D0250915E0260915F02709174
:10117000600222E08BE093E054DCE0911E03E23059
:1011800010F4E15001C0E1E0F0E0E55FFC4F64895C
:1011900060688BE093E051DB6CE472E08BE093E0FD
:1011A000E4DBE0911E03E23010F4E15001C0E1E025
:1011B000F0E0E55FFC4F64896D5F60688BE093E071
:1011C0003CDB4091590250915A0260915B02709150
:1011D0005C0222E08BE093E024DC60E177E280E0D7
:1011E00090E063DA4CD9A5CEC0926102D09262023F
:1011F000E0926302F0926402C0926502D0926602AD
:10120000E0926702F09268023BCFA1E21A2EAA1B7D
:10121000BB1BFD010DC0AA1FBB1FEE1FFF1FA217A6
:10122000B307E407F50720F0A21BB30BE40BF50BA3
:10123000661F771F881F991F1A9469F7609570952C
:10124000809590959B01AC01BD01CF010895505848
:10125000BB27AA270ED070C161D130F066D120F033
:1012600031F49F3F11F41EF456C10EF4E095E7FBF4
:101270004CC1E92F72D180F3BA1762077307840754
:10128000950718F071F49EF58AC10EF4E0950B2EC7
:10129000BA2FA02D0B01B90190010C01CA01A001C8
:1012A0001124FF27591B99F0593F50F4503E68F123
:1012B0001A16F040A22F232F342F4427585FF3CF64
:1012C000469537952795A795F0405395C9F77EF435
:1012D0001F16BA0B620B730B840BBAF09150A1F07E
:1012E000FF0FBB1F661F771F881FC2F70EC0BA0F04
:1012F000621F731F841F48F4879577956795B7958C
:10130000F7959E3F08F0B3CF9395880F08F0992783
:10131000EE0F979587950895D4D008F481E008954D
:101320000CD00AC102D140F0F9D030F021F45F3F77
:1013300019F0EBC0511134C1EEC00FD198F39923CD
:10134000C9F35523B1F3951B550BBB27AA27621789
:101350007307840738F09F5F5F4F220F331F441FCE
:10136000AA1FA9F333D00E2E3AF0E0E830D0915006
:101370005040E695001CCAF729D0FE2F27D0660FF3
:10138000771F881FBB1F261737074807AB07B0E832
:1013900009F0BB0B802DBF01FF2793585F4F2AF048
:1013A0009E3F510568F0B1C0FBC05F3FECF3983E33
:1013B000DCF3869577956795B795F7959F5FC9F7A5
:1013C000880F911D9695879597F90895E1E0660F2E
:1013D000771F881FBB1F621773078407BA0720F0A7
:1013E000621B730B840BBA0BEE1F88F7E095089510
:1013F000BCD088F09F5790F0B92F9927B751A0F033
:10140000D1F0660F771F881F991F1AF0BA95C9F798
:1014100012C0B13081F0C3D0B1E00895C0C0672FD1
:10142000782F8827B85F39F0B93FCCF38695779548
:101430006795B395D9F73EF4909580957095619531
:101440007F4F8F4F9F4F0895E89409C097FB3EF45C
:1014500090958095709561957F4F8F4F9F4F992301
:10146000A9F0F92F96E9BB279395F695879577957F
:101470006795B795F111F8CFFAF4BB0F11F460FF3F
:101480001BC06F5F7F4F8F4F9F4F16C0882311F097
:1014900096E911C0772321F09EE8872F762F05C0AB
:1014A000662371F096E8862F70E060E02AF09A9546
:1014B000660F771F881FDAF7880F9695879597F93B
:1014C0000895990F0008550FAA0BE0E8FEEF1616D5
:1014D0001706E807F907C0F012161306E407F50728
:1014E00098F0621B730B840B950B39F40A2661F09C
:1014F000232B242B252B21F408950A2609F4A1403F
:10150000A6958FEF811D811D089597F99F6780E84B
:1015100070E060E008959FEF80EC089500240A9445
:101520001616170618060906089500240A941216BE
:101530001306140605060895092E0394000C11F4F1
:10154000882352F0BB0F40F4BF2B11F460FF04C09E
:101550006F5F7F4F8F4F9F4F089557FD9058440FF7
:10156000551F59F05F3F71F04795880F97FB991F02
:1015700061F09F3F79F087950895121613061406BF
:10158000551FF2CF4695F1DF08C01616170618064C
:10159000991FF1CF86957105610508940895E89427
:1015A000BB2766277727CB0197F908958ADF08F4D0
:1015B0008FEF08950BD0C0CFB1DF28F0B6DF18F061
:1015C000952309F0A2CFA7CF1124EACFC6DFA0F35D
:1015D000959FD1F3950F50E0551F629FF001729FC8
:1015E000BB27F00DB11D639FAA27F00DB11DAA1FE7
:1015F000649F6627B00DA11D661F829F2227B00D34
:10160000A11D621F739FB00DA11D621F839FA00DBE
:10161000611D221F749F3327A00D611D231F849F0E
:10162000600D211D822F762F6A2F11249F57504065
:101630008AF0E1F088234AF0EE0FFF1FBB1F661F00
:10164000771F881F91505040A9F79E3F510570F0B9
:101650005CCFA6CF5F3FECF3983EDCF386957795A1
:101660006795B795F795E7959F5FC1F7FE2B880FB4
:10167000911D9695879597F9089523DF880B990B0F
:101680000895EE0FFF1F881F8BBF0790F691E02D86
:0E169000199481E090E0F89400C0F894FFCF28
:10169E0000000000D801460171011E02A201800166
:1016AE0094010000000018044601B104B0046E61FC
:1016BE006E00696E66006F76660054656D706572B9
:1016CE00617475723A000D0A004C2D46657563689B
:1016DE007469676B6569743A00543A00483A0000C1
:00000001FF
